:100000000C9461010C9482010C9482010C941413E1
:100010000C9446130C9458130C946A130C9482019C
:100020000C9482010C9482010C9482010C94820144
:100030000C9482010C9482010C9482010C94820134
:100040000C9482010C94C0130C9482010C948201D4
:100050000C9482010C94AE130C9482010C948201D6
:100060000C9482010C94EB140C9482010C94820188
:100070000C9482010C9482010C9482010C948201F4
:100080000C9482010C9482010C9482010C948201E4
:100090000C9482010C9482010C9482010C948201D4
:1000A0000C9482010C9482010C9482010C948201C4
:1000B0000C9482010C9482010C9482010C948201B4
:1000C0000C9482010C9482010C9482010C948201A4
:1000D0000C9482010C9482010C9482010C94820194
:1000E0000C9482017F03CC038603CC038D03CC03E5
:1000F0009403CC039B03CC03A203CC03A903CC033E
:10010000B003CC03B703CC03BE03CC03C503076322
:100110004236B79BD8A71A39685618AEBAAB558C79
:100120001D3CB7CC5763BD6DEDFD753EF6177231C2
:10013000BF000000803F08000000BE922449123E2C
:10014000ABAAAA2ABECDCCCC4C3E00000080BEABF0
:10015000AAAAAA3E00000000BF000000803F0000E5
:10016000000000084178D3BB4387D1133D190E3CF2
:10017000C3BD4282AD2B3E68EC8276BED98FE1A929
:100180003E4C80EFFFBE01C4FF7F3F000000000037
:100190000C948D030C94C5030C94B7030C94CC03FE
:1001A0000C94A9030C947F030C9494030C94860381
:1001B0000C94A2030C94B0030C949B030C94BE0308
:1001C0006E616E00696E660000407A10F35A00A0FE
:1001D000724E18090010A5D4E80000E87648170010
:1001E00000E40B54020000CA9A3B000000E1F50550
:1001F000000080969800000040420F000000A0869A
:1002000001000000102700000000E80300000000CB
:100210006400000000000A0000000000010000006F
:1002200000002C76D888DC674F0823DFC1DFAE5989
:10023000E1B1B796E5E3E453C63AE651997696E81C
:10024000E6C28426EB898C9B62ED407C6FFCEFBCA0
:100250009C9F40F2BAA56FA5F490055A2AF75C93CB
:100260006B6CF9676DC11BFCE0E40D47FEF520E601
:10027000B500D0ED902E0300943577050080841EE4
:10028000080000204E0A000000C80C333333330F3F
:10029000986E12831141EF8D2114893BE65516CFDC
:1002A000FEE6DB18D1844B381BF77C1D901DA4BBE8
:1002B000E424203284725E228100C9F124ECA1E59D
:1002C0003D2711241FBECFEFD1E2DEBFCDBF00E03E
:1002D0000CBF13E0A0E0B2E0E6E9F1E400E00BBF00
:1002E00002C007900D92A03DB107D9F725E0A0ED1F
:1002F000B3E001C01D92A339B207E1F70E942015B7
:100300000C94C9200C940000CF93DF9300D01F926F
:10031000CDB7DEB71A82198224C089818C831B82F3
:1003200011C08C81882F90E0880F991F982F8C81A5
:10033000882314F489E101C080E089278C838B81B4
:100340008F5F8B838B81883060F389819A818C5990
:100350009B4F2C81FC01208389819A8101969A838D
:10036000898389819A818F3F9105B9F2B0F281E04A
:100370008093D0030F900F900F900F90DF91CF914B
:100380000895CF93DF9300D01F921F92CDB7DEB7B1
:100390009C838B836D831A828091D003882311F410
:1003A0000E948401198215C08981882F90E02B81D9
:1003B0003C81820F931FFC0190818A818927882FBD
:1003C00090E08C599B4FFC0180818A8389818F5FEB
:1003D000898399818D81981738F38A810F900F90C6
:1003E0000F900F900F90DF91CF910895CF93DF93EF
:1003F0001F92CDB7DEB789830F90DF91CF9108951B
:10040000CF93DF931F92CDB7DEB78CEB90E024EA59
:10041000FC01208300008CEB90E0FC0180818823AC
:10042000D4F789EB90E0FC018081882F90E0887FF1
:1004300099278830910539F08CEB90E024E9FC0194
:1004400020838AEB82C08BEB90E02EEEFC012083B0
:100450008CEB90E024E8FC01208300008CEB90E022
:10046000FC0180818823D4F789EB90E0FC01808136
:10047000882F90E0887F99278831910539F08CEB9F
:1004800090E024E9FC0120838BEB5FC08BEB90E0D4
:1004900020EDFC0120838CEB90E024E8FC0120831C
:1004A00000008CEB90E0FC0180818823D4F789EB7D
:1004B00090E0FC018081882F90E0887F9927883226
:1004C000910511F08CEB41C08CEB90E024EAFC012B
:1004D000208300008CEB90E0FC0180818823D4F71E
:1004E0008BEB90E02FEEFC0120838CEB90E024EC72
:1004F000FC01208300008CEB90E0FC0180818823CC
:10050000D4F789EB90E0FC018081882F90E0887F10
:1005100099278034910511F08DEB17C08CEB90E09A
:1005200024E8FC01208300008CEB90E0FC0180813A
:100530008823D4F78BEB90E0FC01808189838CEBDE
:1005400090E024E9FC01208389810F90DF91CF9115
:100550000895CF93DF9300D01F921F92CDB7DEB7DF
:100560008AEA89831DC18CEB90E024EAFC01208398
:1005700000008CEB90E0FC0180818823D4F789EBAC
:1005800090E0FC018081882F90E0887F9927883057
:10059000910519F080E00E94F6018BEB90E02EEEC1
:1005A000FC0120838CEB90E024E8FC012083000018
:1005B0008CEB90E0FC0180818823D4F789EB90E0FC
:1005C000FC018081882F90E0887F992788319105F0
:1005D00019F081E00E94F6018BEB90E02981FC018B
:1005E00020838CEB90E024E8FC01208300008CEB5E
:1005F00090E0FC0180818823D4F789EB90E0FC0136
:100600008081882F90E0887F99278832910519F0A2
:1006100082E00E94F6018CEB90E024EAFC0120834A
:1006200000008CEB90E0FC0180818823D4F78BEBF9
:1006300090E02FEEFC0120838CEB90E024ECFC0199
:10064000208300008CEB90E0FC0180818823D4F7AC
:1006500089EB90E0FC018081882F90E0887F9927CA
:100660008034910519F084E00E94F6018CEB90E053
:1006700024ECFC01208300008CEB90E0FC018081E5
:100680008823D4F78BEB90E0FC0180818A838CEB8C
:1006900090E024E8FC01208300008CEB90E0FC015A
:1006A00080818823D4F78BEB90E0FC0180818B83E1
:1006B0008CEB90E024E9FC0120838A81882F90E074
:1006C000382F22278B81882F90E0822B932B9D83BC
:1006D0008C838981882F90E0AA2797FDA095BA2F57
:1006E0004AEA50E024E130E0841B950B28173907D3
:1006F00008F452C08E589F4FFC010C946D1B8C81E6
:100700009D81909365058093640547C08C819D8190
:10071000909367058093660540C08C819D8190937E
:1007200069058093680539C08C819D8190936B0524
:1007300080936A0532C08C819D8190936D05809372
:100740006C052BC08C819D8190936F0580936E0505
:1007500024C08C819D8190937105809370051DC08C
:100760008C819D81909373058093720516C08C8156
:100770009D8190937505809374050FC08C819D8138
:10078000909377058093760508C08C819D81909326
:1007900079058093780501C0000089818E5F898387
:1007A00089818F3B08F4DFCE0F900F900F900F9050
:1007B0000F90DF91CF910895CF92DF92EF92FF9249
:1007C000CF93DF93CDB7DEB7A6970FB6F894DEBF11
:1007D0000FBECDBF19821A821B821C821D821E820F
:1007E0001F82188619861A861B861C861E861D8601
:1007F0008CEB90E024EAFC01208300008CEB90E07D
:10080000FC0180818823D4F789EB90E0FC01808192
:10081000882F90E0887F99278830910519F085E02E
:100820000E94F6018BEB90E02EEEFC0120838CEB16
:1008300090E024E8FC01208300008CEB90E0FC01B8
:1008400080818823D4F789EB90E0FC018081882F98
:1008500090E0887F99278831910519F086E00E9401
:10086000F6018BEB90E024EFFC0120838CEB90E011
:1008700024E8FC01208300008CEB90E0FC018081E7
:100880008823D4F789EB90E0FC018081882F90E0E9
:10089000887F99278832910519F087E00E94F60138
:1008A0008BEB90E02EE2FC0120838CEB90E024E8BF
:1008B000FC01208300008CEB90E0FC018081882308
:1008C000D4F789EB90E0FC018081882F90E0887F4D
:1008D00099278832910519F088E00E94F6018CEB87
:1008E00090E024E9FC01208380E090E0A0E2B1E404
:1008F000898F9A8FAB8FBC8F20E030E04AE755E4B8
:10090000698D7A8D8B8D9C8D0E944D1DDC01CB01F4
:100910008D8F9E8FAF8FB8A320E030E040E85FE37B
:100920006D8D7E8D8F8D98A10E94FA1B88232CF4EB
:1009300081E090E09AA389A33FC020E03FEF4FE71A
:1009400057E46D8D7E8D8F8D98A10E94491D1816DC
:100950004CF520E030E040E251E4698D7A8D8B8DDA
:100960009C8D0E944D1DDC01CB01BC01CD010E947C
:100970006B1CDC01CB019AA389A30FC080E991E035
:100980009CA38BA38BA19CA10197F1F79CA38BA3A4
:1009900089A19AA101979AA389A389A19AA10097F5
:1009A00069F714C06D8D7E8D8F8D98A10E946B1C90
:1009B000DC01CB019AA389A389A19AA19EA38DA34F
:1009C0008DA19EA10197F1F79EA38DA38CEB90E0E2
:1009D00024EAFC01208300008CEB90E0FC01808184
:1009E0008823D4F78BEB90E02EEEFC0120838CEB78
:1009F00090E024E8FC01208300008CEB90E0FC01F7
:100A000080818823D4F789EB90E0FC018081882FD6
:100A100090E0887F99278831910519F086E00E943F
:100A2000F6018BEB90E026EFFC0120838CEB90E04D
:100A300024E8FC01208300008CEB90E0FC01808125
:100A40008823D4F789EB90E0FC018081882F90E027
:100A5000887F99278832910519F088E00E94F60175
:100A60008CEB90E024EAFC01208300008CEB90E00A
:100A7000FC0180818823D4F78BEB90E02FEEFC0102
:100A800020838CEB90E024ECFC01208300008CEBB5
:100A900090E0FC0180818823D4F789EB90E0FC0191
:100AA0008081882F90E0887F99278034910519F004
:100AB00088E00E94F6018CEB90E024ECFC0120839E
:100AC00000008CEB90E0FC0180818823D4F78BEB55
:100AD00090E0FC0180818F878CEB90E024E8FC01A2
:100AE000208300008CEB90E0FC0180818823D4F708
:100AF0008BEB90E0FC018081888B8CEB90E024E90B
:100B0000FC0120838F85882F90E0382F2227888949
:100B1000882F90E0822B932BAA2797FDA095BA2FC0
:100B2000898B9A8BAB8BBC8B80916E0590916F05F6
:100B3000CC01A0E0B0E029893A894B895C89281B67
:100B4000390B4A0B5B0B80916C0590916D05CC01C4
:100B5000A0E0B0E0BC01CD010E943B1BDC01CB0159
:100B6000BC01CD010E94971CDC01CB0120E030E0EC
:100B700040E057E4BC01CD010E94FE1BDC01CB012B
:100B8000BC01CD010E94661CDC01CB0189839A83E4
:100B9000AB83BC838091760590917705AA2797FD5A
:100BA000A095BA2FBC01CD010E94991CDC01CB019C
:100BB00020E030E040E055E4BC01CD010E944D1D35
:100BC000DC01CB016C017D01809178059091790564
:100BD0009C01442737FD4095542F89819A81AB8130
:100BE000BC81820F931FA41FB51FBC01CD010E94C1
:100BF000991CDC01CB019C01AD01C701B6010E942B
:100C0000FE1BDC01CB01BC01CD010E94661CDC0196
:100C1000CB018D839E83AF83B88729813A814B8135
:100C20005C818D819E81AF81B885820F931FA41F47
:100C3000B51F89879A87AB87BC8789859A85AB85DD
:100C4000BC858093D1039093D203A093D303B09338
:100C5000D40389859A85AB85BC850896A11DB11DF5
:100C6000BC01CD010E94991CDC01CB0120E030E0E9
:100C700040E851E4BC01CD010E94FE1BDC01CB0128
:100C8000BC01CD010E94661CDC01CB019E878D87D3
:100C90008D859E85AA2797FDA095BA2FBC01CD0111
:100CA0000E94991CDC01CB0120E030E040E251E4DD
:100CB000BC01CD010E94FE1BDC01CB018D8B9E8B04
:100CC000AF8BB88F8D899E89AF89B88DBC01CD015E
:100CD000A6960FB6F894DEBF0FBECDBFDF91CF91C1
:100CE000FF90EF90DF90CF9008958F929F92AF92F8
:100CF000BF92CF92DF92EF92FF920F931F93CF9309
:100D0000DF93CDB7DEB7C455D1090FB6F894DEBF77
:100D10000FBECDBF9E01255B3F4FF90191838083BC
:100D20008CEB90E024EAFC01208300008CEB90E047
:100D3000FC0180818823D4F789EB90E0FC0180815D
:100D4000882F90E0887F99278830910519F085E0F9
:100D50000E94F6018BEB90E02EEEFC0120838CEBE1
:100D600090E024E8FC01208300008CEB90E0FC0183
:100D700080818823D4F789EB90E0FC018081882F63
:100D800090E0887F99278831910519F086E00E94CC
:100D9000F6018BEB90E024EFFC0120838CEB90E0DC
:100DA00024E8FC01208300008CEB90E0FC018081B2
:100DB0008823D4F789EB90E0FC018081882F90E0B4
:100DC000887F99278832910519F087E00E94F60103
:100DD0008BEB90E024EFFC0120838CEB90E024E887
:100DE000FC01208300008CEB90E0FC0180818823D3
:100DF000D4F789EB90E0FC018081882F90E0887F18
:100E000099278832910519F088E00E94F6018CEB51
:100E100090E024E9FC01208380E090E0A8ECB2E4BB
:100E20009E01235C3F4FF90180839183A283B383AA
:100E30008E010F5B1F4F20E030E04AE755E4CE0102
:100E4000CD96FC0160817181828193810E944D1D4C
:100E5000DC01CB01F80180839183A283B383CE01AF
:100E60008F5B9F4F20E030E040E85FE3FC01608152
:100E70007181828193810E94FA1B88234CF4CE01F8
:100E80008B5B9F4F21E030E0FC01318320836CC0FD
:100E9000CE018F5B9F4F20E03FEF4FE757E4FC010F
:100EA00060817181828193810E94491D18160CF026
:100EB00049C020E030E040E251E4CE01CD96FC0193
:100EC00060817181828193810E944D1DDC01CB0183
:100ED0008E010B5B1F4FBC01CD010E946B1CDC011E
:100EE000CB01F8019183808324C0CE01895B9F4FA1
:100EF00020E931E0FC0131832083CE01895B9F4FE3
:100F0000FC01808191810197F1F79E01295B3F4FA0
:100F1000F90191838083CE018B5B9F4F9E012B5BF8
:100F20003F4FF9012081318121503109FC0131838A
:100F30002083CE018B5B9F4FFC01808191810097C4
:100F4000A1F62CC08E010B5B1F4FCE018F5B9F4F14
:100F5000FC0160817181828193810E946B1CDC01A4
:100F6000CB01F80191838083CE01875B9F4F9E0167
:100F70002B5B3F4FF90120813181FC0131832083BC
:100F8000CE01875B9F4FFC01808191810197F1F732
:100F90009E01275B3F4FF901918380838CEB90E0AA
:100FA00024EAFC01208300008CEB90E0FC018081AE
:100FB0008823D4F78BEB90E02EEEFC0120838CEBA2
:100FC00090E024E8FC01208300008CEB90E0FC0121
:100FD00080818823D4F789EB90E0FC018081882F01
:100FE00090E0887F99278831910519F086E00E946A
:100FF000F6018BEB90E026EFFC0120838CEB90E078
:1010000024E8FC01208300008CEB90E0FC0180814F
:101010008823D4F789EB90E0FC018081882F90E051
:10102000887F99278832910519F088E00E94F6019F
:101030008CEB90E024EAFC01208300008CEB90E034
:10104000FC0180818823D4F78BEB90E02FEEFC012C
:1010500020838CEB90E024ECFC01208300008CEBDF
:1010600090E0FC0180818823D4F789EB90E0FC01BB
:101070008081882F90E0887F99278034910519F02E
:1010800088E00E94F6018CEB90E024ECFC012083C8
:1010900000008CEB90E0FC0180818823D4F78BEB7F
:1010A00090E0FC018081882F90E0A0E0B0E08D838B
:1010B0009E83AF83B8878CEB90E024ECFC01208307
:1010C00000008CEB90E0FC0180818823D4F78BEB4F
:1010D00090E0FC018081882F90E0A0E0B0E089875B
:1010E0009A87AB87BC878CEB90E024E8FC012083D7
:1010F00000008CEB90E0FC0180818823D4F78BEB1F
:1011000090E0FC018081882F90E0A0E0B0E08D8726
:101110009E87AF87B88B8CEB90E024E9FC0120839D
:101120008D819E81AF81B885DC01992788279C013C
:10113000AD0122273327552789859A85AB85BC8544
:10114000BA2FA92F982F8827AA27BB27280F391F26
:101150004A1F5B1F8D859E85AF85B8899927AA2771
:10116000BB27820F931FA41FB51F20910002222FBF
:1011700030E048E050E0BA01621B730B9B0104C0F1
:10118000B695A795979587952A95D2F7898B9A8BCF
:10119000AB8BBC8B8091D1039091D203A091D303F0
:1011A000B091D403805A9F40A109B1098D8B9E8BC9
:1011B000AF8BB88F8091720590917305AA2797FD28
:1011C000A095BA2FBC01CD010E94991C6B017C0136
:1011D0006D897E898F89988D0E94991C4B015C01D5
:1011E0006D897E898F89988D0E94991CDC01CB01C5
:1011F00020E030E040E855E4BC01CD010E94FE1B38
:10120000DC01CB019C01AD01C501B4010E944D1D63
:10121000DC01CB019C01AD01C701B6010E944D1D4F
:10122000DC01CB0120E030E040E055E4BC01CD0121
:101230000E94FE1BDC01CB01BC01CD010E94661C9B
:10124000DC01CB01898F9A8FAB8FBC8F80916605B3
:1012500090916705AA2797FDA095BA2FBC01CD01F3
:101260000E94991C6B017C016D897E898F89988D04
:101270000E94991CDC01CB0120E030E040E055E405
:10128000BC01CD010E94FE1BDC01CB019C01AD0124
:10129000C701B6010E944D1DDC01CB01BC01CD018F
:1012A0000E94661CDC01CB018D8F9E8FAF8FB8A38F
:1012B000298D3A8D4B8D5C8D8D8D9E8DAF8DB8A116
:1012C000820F931FA41FB51F89A39AA3ABA3BCA32E
:1012D0008091640590916505880F991F880F991F6B
:1012E0009C01442737FD4095542F89A19AA1ABA1B9
:1012F000BCA1820F931FA41FB51F20910002222FB3
:1013000030E0022E04C0880F991FAA1FBB1F0A9449
:10131000D2F70296A11DB11DBB231CF40396A11D9B
:10132000B11DB595A79597958795B595A79597956F
:1013300087958DA39EA3AFA3B8A7809168059091D0
:101340006905AA2797FDA095BA2FBC01CD010E947F
:10135000991C6B017C016D897E898F89988D0E9413
:10136000991CDC01CB0120E030E040E056E4BC01F8
:10137000CD010E94FE1BDC01CB019C01AD01C70128
:10138000B6010E944D1DDC01CB01BC01CD010E94C4
:10139000661CDC01CB01898F9A8FAB8FBC8F80914B
:1013A000700590917105AA2797FDA095BA2FBC01F1
:1013B000CD010E94991C6B017C016D897E898F890A
:1013C000988D0E94991C4B015C016D897E898F89E3
:1013D000988D0E94991CDC01CB0120E030E040E8B0
:1013E00055E4BC01CD010E94FE1BDC01CB019C0138
:1013F000AD01C501B4010E944D1DDC01CB019C0172
:10140000AD01C701B6010E944D1DDC01CB0120E0FA
:1014100030E040E857E4BC01CD010E94FE1BDC0136
:10142000CB01BC01CD010E94661CDC01CB018D8F7C
:101430009E8FAF8FB8A3298D3A8D4B8D5C8D8D8D8E
:101440009E8DAF8DB8A1820F931FA41FB51F02966A
:10145000A11DB11DBC01CD010E94991CDC01CB0175
:1014600020E030E040E850E4BC01CD010E94FE1BCA
:10147000DC01CB01BC01CD010E94661CDC01CB016B
:1014800089A39AA3ABA3BCA380916A0590916B0535
:101490009C0140E050E089A19AA1ABA1BCA1905869
:1014A000AF4FBF4FBC01CD010E943B1BDC01CB0104
:1014B000BC01CD010E94971CDC01CB0120E030E093
:1014C00040E057E4BC01CD010E94FE1BDC01CB01D2
:1014D000BC01CD010E946B1CDC01CB0189A79AA73E
:1014E000ABA7BCA78DA19EA1AFA1B8A529893A89B8
:1014F0004B895C89281B390B4A0B5B0B80910002DE
:10150000682F70E080E593ECA0E0B0E004C0B595F2
:10151000A795979587956A95D2F7BC01CD010E9452
:101520003B1BDC01CB018DA79EA7AFA7B8AB8DA558
:101530009EA5AFA5B8A9BB23BCF08DA59EA5AFA560
:10154000B8A9880F991FAA1FBB1F29A53AA54BA5AB
:101550005CA5BC01CD010E944B1BDA01C901898346
:101560009A83AB83BC8316C08DA59EA5AFA5B8A9F1
:1015700029A53AA54BA55CA5BC01CD010E944B1B3A
:10158000DA01C901880F991FAA1FBB1F89839A839B
:10159000AB83BC8369817A818B819C810E94991C79
:1015A000DC01CB0120E030E040E853E4BC01CD0198
:1015B0000E94FE1BDC01CB016C017D0169817A81F7
:1015C0008B819C810E94991CDC01CB0120E030E0E2
:1015D00040E853E4BC01CD010E94FE1BDC01CB01BD
:1015E0009C01AD01C701B6010E944D1DDC01CB017C
:1015F000BC01CD010E94661CDC01CB01898F9A8F52
:10160000AB8FBC8F298D3A8D4B8D5C8D8EED9BE021
:10161000DC010E94731BDC01CB01BC01CD010E94E7
:10162000991CDC01CB0120E030E040E857E4BC012C
:10163000CD010E94FE1BDC01CB01BC01CD010E944B
:10164000661CDC01CB01898F9A8FAB8FBC8F2981FF
:101650003A814B815C8183E493EEDC010E94811B23
:10166000DC01CB01BC01CD010E94991CDC01CB0146
:1016700020E030E040E857E4BC01CD010E94FE1BB1
:10168000DC01CB01BC01CD010E94661CDC01CB0159
:101690008D8F9E8FAF8FB8A369817A818B819C815A
:1016A0000E94991C6B017C01298D3A8D4B8D5C8DBC
:1016B0008D8D9E8DAF8DB8A1820F931FA41FB51F76
:1016C0008153914FAF4FBF4FBC01CD010E94991C78
:1016D000DC01CB0120E030E040E851E4BC01CD0169
:1016E0000E94FE1BDC01CB019C01AD01C701B601CC
:1016F0000E94961BDC01CB01BC01CD010E94661C3F
:10170000DC01CB0189839A83AB83BC83CE01855BEB
:101710009F4FFC0180819181CC01A0E0B0E0BC0131
:10172000CD010E94971CDC01CB0120E03AE24DE2A2
:1017300057E4BC01CD010E94FE1BDC01CB019C01E2
:10174000AD0160E070E080E89FE30E94951BDC0142
:10175000CB0189AB9AABABABBCAB89A99AA9ABA9BE
:10176000BCA926EF38E248EA50E4BC01CD010E9452
:10177000B01DDC01CB0189AB9AABABABBCAB6981D3
:101780007A818B819C810E94991CDC01CB0129A963
:101790003AA94BA95CA9BC01CD010E94FE1BDC014A
:1017A000CB018DAB9EABAFABB8AF2FE732ED4AE9C3
:1017B00059E36DA97EA98FA998AD0E944D1DDC014A
:1017C000CB0189AF9AAFABAFBCAF89AD9AADABAD32
:1017D000BCADBC01CD01CC5ADF4F0FB6F894DEBFD3
:1017E0000FBECDBFDF91CF911F910F91FF90EF9072
:1017F000DF90CF90BF90AF909F908F900895CF9340
:10180000DF931F921F92CDB7DEB78A838CEB90E0F7
:1018100024EAFC01208300008CEB90E0FC01808135
:101820008823D4F789EB90E0FC018081882F90E039
:10183000887F99278830910539F08CEB90E024E976
:10184000FC0120838AEA8CC08BEB90E020ECFC0149
:1018500020838CEB90E024E8FC01208300008CEBDB
:1018600090E0FC0180818823D4F789EB90E0FC01B3
:101870008081882F90E0887F99278831910539F001
:101880008CEB90E024E9FC0120838BEA69C08BEBB0
:1018900090E02A81FC0120838CEB90E024E8FC019D
:1018A000208300008CEB90E0FC0180818823D4F73A
:1018B00089EB90E0FC018081882F90E0887F992758
:1018C0008832910539F08CEB90E024E9FC0120830B
:1018D0008CEA46C08CEB90E024EAFC0120830000F7
:1018E0008CEB90E0FC0180818823D4F78BEB90E0B7
:1018F00021ECFC0120838CEB90E024ECFC012083A4
:1019000000008CEB90E0FC0180818823D4F789EB08
:1019100090E0FC018081882F90E0887F99278034B7
:10192000910539F08CEB90E024E9FC0120838EEAEC
:1019300017C08CEB90E024E8FC01208300008CEBC6
:1019400090E0FC0180818823D4F78BEB90E0FC01D0
:10195000808189838CEB90E024E9FC0120838981DC
:101960000F900F90DF91CF910895CF93DF93CDB774
:10197000DEB761970FB6F894DEBF0FBECDBF888B80
:10198000698B8CEB90E024EAFC01208300008CEB57
:1019900090E0FC0180818823D4F789EB90E0FC0182
:1019A0008081882F90E0887F99278830910539F0D1
:1019B0008CEB90E024E9FC0120838AEA8AC18BEB5E
:1019C00090E020ECFC0120838CEB90E024E8FC010B
:1019D000208300008CEB90E0FC0180818823D4F709
:1019E00089EB90E0FC018081882F90E0887F992727
:1019F0008831910539F08CEB90E024E9FC012083DB
:101A00008BEA67C18BEB90E02889FC0120838CEB8B
:101A100090E024E8FC01208300008CEB90E0FC01C6
:101A200080818823D4F789EB90E0FC018081882FA6
:101A300090E0887F99278832910539F08CEB90E00F
:101A400024E9FC0120838CEA44C18BEB90E02989D6
:101A5000FC0120838CEB90E024E8FC012083000053
:101A60008CEB90E0FC0180818823D4F789EB90E037
:101A7000FC018081882F90E0887F9927883291052A
:101A800039F08CEB90E024E9FC0120838DEA21C140
:101A90008CEB90E024E9FC01208380E090E0A0EF53
:101AA000B1E48A839B83AC83BD8320E030E04AE7C6
:101AB00055E46A817B818C819D810E944D1DDC01F2
:101AC000CB018E839F83A887B98720E030E040E870
:101AD0005FE36E817F81888599850E94FA1B882348
:101AE0002CF481E090E09B878A873FC020E03FEFA5
:101AF0004FE757E46E817F81888599850E94491D53
:101B000018164CF520E030E040E251E46A817B8118
:101B10008C819D810E944D1DDC01CB01BC01CD015A
:101B20000E946B1CDC01CB019B878A870FC080E978
:101B300091E09D878C878C859D850197F1F79D8726
:101B40008C878A859B8501979B878A878A859B8559
:101B5000009769F714C06E817F81888599850E94FE
:101B60006B1CDC01CB019B878A878A859B859F87BD
:101B70008E878E859F850197F1F79F878E878CEBE7
:101B800090E024EAFC01208300008CEB90E0FC0153
:101B900080818823D4F789EB90E0FC018081882F35
:101BA00090E0887F99278830910539F08CEB90E0A0
:101BB00024E9FC0120838AEA8CC08BEB90E020ECC6
:101BC000FC0120838CEB90E024ECFC0120830000DE
:101BD0008CEB90E0FC0180818823D4F789EB90E0C6
:101BE000FC018081882F90E0887F992788319105BA
:101BF00039F08CEB90E024E9FC0120838FEA69C086
:101C00008BEB90E02889FC0120838CEB90E024E8AA
:101C1000FC01208300008CEB90E0FC018081882394
:101C2000D4F789EB90E0FC018081882F90E0887FD9
:101C300099278832910539F08CEB90E024E9FC017A
:101C400020838FEA46C08CEB90E024EAFC012083DD
:101C500000008CEB90E0FC0180818823D4F78BEBB3
:101C600090E021ECFC0120838CEB90E024E8FC0167
:101C7000208300008CEB90E0FC0180818823D4F766
:101C800089EB90E0FC018081882F90E0887F992784
:101C90008034910539F08CEB90E024E9FC0120833D
:101CA0008CEA17C08CEB90E024E8FC012083000054
:101CB0008CEB90E0FC0180818823D4F78BEB90E0E3
:101CC000FC01808189838CEB90E024E9FC01208376
:101CD000898161960FB6F894DEBF0FBECDBFDF914C
:101CE000CF910895CF93DF93CDB7DEB727970FB687
:101CF000F894DEBF0FBECDBF8F838CEB90E024EA5B
:101D0000FC01208300008CEB90E0FC0180818823A3
:101D1000D4F78BEB90E020ECFC0120838CEB90E07F
:101D200024E8FC01208300008CEB90E0FC01808122
:101D30008823D4F789EB90E0FC018081882F90E024
:101D4000887F99278831910541F08CEB90E024E958
:101D5000FC0120838AEA90E08DC08BEB90E02F811C
:101D6000FC0120838CEB90E024E8FC012083000040
:101D70008CEB90E0FC0180818823D4F789EB90E024
:101D8000FC018081882F90E0887F99278832910517
:101D900041F08CEB90E024E9FC0120838BEA90E099
:101DA00069C08CEB90E024EAFC01208300008CEBFE
:101DB00090E0FC0180818823D4F78BEB90E021EC4C
:101DC000FC0120838CEB90E024ECFC0120830000DC
:101DD0008CEB90E0FC0180818823D4F789EB90E0C4
:101DE000FC018081882F90E0887F992780349105BD
:101DF00041F08CEB90E024E9FC0120838CEA90E038
:101E000039C08CEB90E024ECFC01208300008CEBCB
:101E100090E0FC0180818823D4F78BEB90E0FC01FB
:101E20008081882F90E09A8389838CEB90E024E86E
:101E3000FC01208300008CEB90E0FC018081882372
:101E4000D4F78BEB90E0FC018081882F90E09C839D
:101E50008B838CEB90E024E9FC0120838B819C81B7
:101E6000382F222789819A81822B932B9E838D8301
:101E70008D819E8127960FB6F894DEBF0FBECDBF31
:101E8000DF91CF910895CF93DF931F92CDB7DEB747
:101E9000898385EC90E02981222F30E0232F330FB6
:101EA000330BFC01208384EC90E02981FC0120832A
:101EB00081EC90E028E9FC01208382EC90E026E0B0
:101EC000FC0120830F90DF91CF910895CF93DF9392
:101ED00000D01F921F92CDB7DEB79C838B836D839A
:101EE0001A8219821CC0000080EC90E0FC01808105
:101EF000882F90E0807299270097B1F386EC90E0EC
:101F000029813A814B815C81240F351FF9012081A1
:101F1000FC01208389819A8101969A8389838D812E
:101F2000282F30E089819A8182179307E4F20F907D
:101F30000F900F900F900F90DF91CF910895CF9356
:101F4000DF93CDB7DEB78091D503882361F010927F
:101F5000D50385E290E025E230E0F9012081206898
:101F6000FC0120830CC081E08093D50385E290E0E2
:101F700025E230E0F90120812F77FC012083DF91F9
:101F8000CF910895CF93DF931F921F92CDB7DEB705
:101F90008A8310929205000080919205823058F455
:101FA00080917A05282F30E08A81882F90E0019770
:101FB000281739078CF310927A05809192058230A8
:101FC00078F08BE0E3E0F2E0A8EDB3E001900D9251
:101FD0008A95E1F76AE088ED93E00E94660F6EC093
:101FE0008A818150682F8BE795E00E94C101898327
:101FF00090917F058981981759F18981282F30E0C8
:1020000080917F05882F90E0432F4F932F93292FA6
:102010002F938F938EE092E0892F8F938EE092E042
:102020008F9388ED93E0892F8F9388ED93E08F93C2
:102030000E943C208DB79EB708960FB6F894DEBF7D
:102040000FBECDBF60E288ED93E00E94660F36C000
:102050008981282F30E080917F05882F90E0432FE1
:102060004F932F93292F2F938F938EE092E0892FF8
:102070008F938EE092E08F9388ED93E0892F8F937A
:1020800088ED93E08F930E943C208DB79EB7089611
:102090000FB6F894DEBF0FBECDBF60E288ED93E0CF
:1020A0000E94660F80917C0580938D0580917D054F
:1020B00080938C0580917E0580938B050F900F9007
:1020C000DF91CF910895CF93DF931F921F92CDB7E9
:1020D000DEB78A83109292050000809192058230CB
:1020E00058F480917A05282F30E08A81882F90E07B
:1020F0000197281739078CF310927A058091920581
:10210000823078F08BE0E3E0F2E0A8EDB3E00190FC
:102110000D928A95E1F76AE088ED93E00E94660FE0
:1021200072C08A818150682F8BE795E00E94C101BF
:10213000898390917E058981981759F18981282F8B
:1021400030E080917E05882F90E0432F4F932F93AE
:10215000292F2F938F938CE292E0892F8F938CE21B
:1021600092E08F9388ED93E0892F8F9388ED93E031
:102170008F930E943C208DB79EB708960FB6F894B7
:10218000DEBF0FBECDBF60E288ED93E00E94660F18
:102190003AC08981282F30E080917E05882F90E019
:1021A000432F4F932F93292F2F938F938CE292E0FD
:1021B000892F8F938CE292E08F9388ED93E0892FA3
:1021C0008F9388ED93E08F930E943C208DB79EB74C
:1021D00008960FB6F894DEBF0FBECDBF60E288ED63
:1021E00093E00E94660F80917C05882F90E0382F45
:1021F000222780917D05882F90E0820F931F909376
:102200000202809301020F900F90DF91CF91089509
:10221000CF93DF93CDB7DEB7AC970FB6F894DEBFA0
:102220000FBECDBF8CA71092920500008091920541
:10223000823058F480917A05282F30E08CA5882FC1
:1022400090E00197281739078CF310927A05809156
:102250009205823078F08BE0E3E0F2E0A8EDB3E0A5
:1022600001900D928A95E1F76AE088ED93E00E9473
:10227000660FD1C18CA58150682F8BE795E00E9435
:10228000C101898390917D058981981759F18981D0
:10229000282F30E080917D05882F90E0432F4F93C9
:1022A0002F93292F2F938F9384E592E0892F8F937B
:1022B00084E592E08F9388ED93E0892F8F9388EDEA
:1022C00093E08F930E943C208DB79EB708960FB67F
:1022D000F894DEBF0FBECDBF60E288ED93E00E94B0
:1022E000660F99C18981282F30E080917D05882F64
:1022F00090E0432F4F932F93292F2F938F938BE7AA
:1023000092E0892F8F938BE792E08F9388ED93E093
:10231000892F8F9388ED93E08F930E943C208DB797
:102320009EB708960FB6F894DEBF0FBECDBF60E231
:1023300088ED93E00E94660F6AE088E10E94B50C88
:1023400080E090E0A0E2B1E48A839B83AC83BD830C
:1023500020E030E04AE755E46A817B818C819D81F1
:102360000E944D1DDC01CB018E839F83A887B98716
:1023700020E030E040E85FE36E817F8188859985C9
:102380000E94FA1B88232CF481E090E09B878A87C7
:102390003FC020E03FEF4FE757E46E817F818885A3
:1023A00099850E94491D18164CF520E030E040E266
:1023B00051E46A817B818C819D810E944D1DDC01ED
:1023C000CB01BC01CD010E946B1CDC01CB019B87C2
:1023D0008A870FC080E991E09D878C878C859D85D9
:1023E0000197F1F79D878C878A859B8501979B874D
:1023F0008A878A859B85009769F714C06E817F81E3
:10240000888599850E946B1CDC01CB019B878A879C
:102410008A859B859F878E878E859F850197F1F79B
:102420009F878E8780917C05813029F460E287E167
:102430000E94B50C04C060E087E10E94B50C80E00A
:1024400090E0A0E2B1E4888B998BAA8BBB8B20E053
:1024500030E04AE755E4688979898A899B890E9436
:102460004D1DDC01CB018C8B9D8BAE8BBF8B20E097
:1024700030E040E85FE36C897D898E899F890E9406
:10248000FA1B88232CF481E090E0998F888F3FC05D
:1024900020E03FEF4FE757E46C897D898E899F8963
:1024A0000E94491D18164CF520E030E040E251E44E
:1024B000688979898A899B890E944D1DDC01CB013D
:1024C000BC01CD010E946B1CDC01CB01998F888F70
:1024D0000FC080E991E09B8F8A8F8A8D9B8D019739
:1024E000F1F79B8F8A8F888D998D0197998F888FAF
:1024F000888D998D009769F714C06C897D898E89C4
:102500009F890E946B1CDC01CB01998F888F888D7D
:10251000998D9D8F8C8F8C8D9D8D0197F1F79D8F5F
:102520008C8F62EB88E10E94B50C80E090E0A0E225
:10253000B1E48E8F9F8FA8A3B9A320E030E04AE7D3
:1025400055E46E8D7F8D88A199A10E944D1DDC01FF
:10255000CB018AA39BA3ACA3BDA320E030E040E85D
:102560005FE36AA17BA18CA19DA10E94FA1B882335
:102570002CF481E090E09FA38EA33FC020E03FEFCA
:102580004FE757E46AA17BA18CA19DA10E94491D40
:1025900018164CF520E030E040E251E46E8D7F8D5E
:1025A00088A199A10E944D1DDC01CB01BC01CD0188
:1025B0000E946B1CDC01CB019FA38EA30FC080E99E
:1025C00091E099A788A788A599A50197F1F799A700
:1025D00088A78EA19FA101979FA38EA38EA19FA1E3
:1025E000009769F714C06AA17BA18CA19DA10E94EC
:1025F0006B1CDC01CB019FA38EA38EA19FA19BA787
:102600008AA78AA59BA50197F1F79BA78AA76EE0E9
:1026100088E10E94B50CAC960FB6F894DEBF0FBEF1
:10262000CDBFDF91CF9108951F920F9200905F0070
:102630000F92112400905B000F922F933F934F93C2
:102640005F936F937F938F939F93AF93BF93EF931A
:10265000FF93CF93DF93CDB7DEB70E949F0FDF913B
:10266000CF91FF91EF91BF91AF919F918F917F910A
:102670006F915F914F913F912F910F9000925B006E
:102680000F9000925F000F901F9018951F920F926D
:1026900000905F000F921124CF93DF93CDB7DEB788
:1026A000DF91CF910F9000925F000F901F901895CF
:1026B0001F920F9200905F000F921124CF93DF932F
:1026C000CDB7DEB7DF91CF910F9000925F000F90F2
:1026D0001F9018951F920F9200905F000F92112487
:1026E00000905B000F922F933F934F935F936F93F4
:1026F0007F938F939F93AF93BF93EF93FF93CF936A
:10270000DF93CDB7DEB70E949F0F63E081E20E94A6
:10271000B50C82E20E94720E909361048093600473
:102720008CE20E94720E9093630480936204DF91A6
:10273000CF91FF91EF91BF91AF919F918F917F9139
:102740006F915F914F913F912F910F9000925B009D
:102750000F9000925F000F901F9018951F920F929C
:1027600000905F000F921124CF93DF93CDB7DEB7B7
:10277000DF91CF910F9000925F000F901F901895FE
:102780001F920F9200905F000F92112400905B0047
:102790000F92FF920F931F932F933F934F935F934B
:1027A0006F937F938F939F93AF93BF93EF93FF9319
:1027B000CF93DF93CDB7DEB780918B058F5F80938A
:1027C0008B0580918B058C33F0F010928B058091F6
:1027D0008C058F5F80938C0580918C058C3398F0ED
:1027E00010928B0510928C0580918D058F5F8093E0
:1027F0008D0580918D05883130F010928B051092F7
:102800008C0510928D05809192058F5F80939205C3
:102810008091D603882309F477C00E94DC03DC0191
:10282000CB018093580490935904A0935A04B09319
:102830005B0480910102909102020E947506DC0106
:10284000CB0180935C0490935D04A0935E04B093ED
:102850005F0440E850E060E070E088ED93E00E94A3
:10286000F81F20915C0430915D0440915E0450910A
:102870005F048091580490915904A0915A04B0913A
:102880005B0460918B05062F10E060918C05E62FAC
:10289000F0E060918D05662F70E0F52EFF92F42E2A
:1028A000FF92F32EFF922F932B2F2F932A2F2F93EC
:1028B000292F2F938F93812F8F93802F8F938F2F7B
:1028C0008F938E2F8F93872F8F93862F8F9382EAEC
:1028D00092E0892F8F9382EA92E08F9388ED93E0C4
:1028E000892F8F9388ED93E08F930E943C208DB7C2
:1028F0009EB742960FB6F894DEBF0FBECDBF60E81C
:1029000088ED93E00E94660F8091D703882309F435
:1029100048C040E850E060E070E088ED93E00E943D
:10292000F81FE0916204F09163046091600470917B
:10293000610480918B05482F50E080918C05282FF1
:1029400030E080918D05882F90E0AF2FAF93EF930B
:10295000E72FEF936F93652F6F934F93432F4F9311
:102960002F93292F2F938F9389ED92E0892F8F93A7
:1029700089ED92E08F9388ED93E0892F8F9388ED16
:1029800093E08F930E943C208DB79EB70E960FB6B2
:10299000F894DEBF0FBECDBF60E888ED93E00E94E3
:1029A000660FDF91CF91FF91EF91BF91AF919F9112
:1029B0008F917F916F915F914F913F912F911F91D7
:1029C0000F91FF900F9000925B000F9000925F00BC
:1029D0000F901F9018951F920F9200905F000F921A
:1029E000112400905B000F922F933F938F939F933E
:1029F000EF93FF93CF93DF93CDB7DEB780917A0546
:102A0000882F90E026EC30E0F901208185589A4F1C
:102A1000FC01208380917A058F5F80937A05DF9196
:102A2000CF91FF91EF919F918F913F912F910F90B7
:102A300000925B000F9000925F000F901F9018951E
:102A4000CF93DF93CDB7DEB762970FB6F894DEBFB2
:102A50000FBECDBF84E290E02FEFFC01208385E222
:102A600090E025E230E0F90120812F77FC012083FE
:102A7000F89489E690E020EAFC0120838AE690E061
:102A80002AE0FC0120838DE390E02CE3FC0120830D
:102A900089EB90E021E0FC01208388EB90E021E0CD
:102AA000FC01208384E490E0FC01108285E490E046
:102AB000FC01108286E490E0FC01108287E490E043
:102AC00020E8FC01208388E490E0FC01108284E48B
:102AD00090E024E430E0F90120812260FC012083B1
:102AE00085E490E0FC0110828EE690E02EE630E076
:102AF000F90120812260FC01208380E890E0FC0144
:102B0000108281E890E0FC01108282E890E0FC01F4
:102B1000108284E890E0FC011182108288E890E045
:102B200029E03DE3FC013183208380E890E0FC0153
:102B3000108281E890E02DE0FC01208382E890E0A3
:102B400020E8FC0120838FE690E02FE630E0F901D9
:102B500020812260FC01208387E60E94430F789445
:102B60000E940002898389818A3B19F089818B3B0D
:102B7000C9F440E850E060E070E088ED93E00E9426
:102B8000F81F81E2E8E1F3E0A8EDB3E001900D92D7
:102B90008A95E1F760E888ED93E00E94660F109255
:102BA000D6032CC040E850E060E070E088ED93E090
:102BB0000E94F81F8981882F90E0292F2F938F93EF
:102BC00089E393E0892F8F9389E393E08F9388EDD6
:102BD00093E0892F8F9388ED93E08F930E943C20A0
:102BE0000F900F900F900F900F900F9060E888ED6E
:102BF00093E00E94660F81E08093D60380E00E94FC
:102C0000FF0B8A838A818A3A19F08A818B3AC9F448
:102C100040E850E060E070E088ED93E00E94F81F2B
:102C20008EE1E8E4F3E0A8EDB3E001900D928A951F
:102C3000E1F760E888ED93E00E94660F1092D703F9
:102C40007AC081E08093D70381E00E94FF0B8B83E1
:102C500082E00E94FF0B8C8340E850E060E070E06F
:102C600088ED93E00E94F81F8C81482F50E08B8103
:102C7000282F30E08A81882F90E0652F6F934F9343
:102C8000432F4F932F93292F2F938F9386E693E013
:102C9000892F8F9386E693E08F9388ED93E0892FB9
:102CA0008F9388ED93E08F930E943C208DB79EB761
:102CB0000A960FB6F894DEBF0FBECDBF60E888ED70
:102CC00093E00E94660F67E187E00E94B50C60E028
:102CD00083E10E94B50C62E084E10E94B50C69E8D2
:102CE00085E10E94B50C69E286E10E94B50C60E8BE
:102CF00088E00E94B50C6EE389E00E94B50C61E0AB
:102D000083E00E94B50C61E084E00E94B50C60E9AC
:102D100087E10E94B50C61EA88E10E94B50C60E28F
:102D200087E10E94B50C62EB88E10E94B50C6EE071
:102D300088E10E94B50C8091D603882309F461C014
:102D40000E94A9020E94DC03DC01CB01809358049D
:102D500090935904A0935A04B0935B0480910102AC
:102D6000909102020E947506DC01CB0180935C0405
:102D700090935D04A0935E04B0935F0440E850E03C
:102D800060E070E088ED93E00E94F81F20915C0401
:102D900030915D0440915E0450915F04809158042D
:102DA00090915904A0915A04B0915B04652F6F93E0
:102DB000642F6F93632F6F932F932B2F2F932A2FB3
:102DC0002F93292F2F938F9381EA93E0892F8F934D
:102DD00081EA93E08F9388ED93E0892F8F9388EDBC
:102DE00093E08F930E943C20EDB7FEB73C960FB660
:102DF000F894DEBF0FBECDBF60E888ED93E00E947F
:102E0000660F10927A0580917A05882309F48EC0A6
:102E100080E090E0A0E2B1E48D839E83AF83B88729
:102E200020E030E04AE755E46D817E818F8198850E
:102E30000E944D1DDC01CB0189879A87AB87BC8737
:102E400020E030E040E85FE369857A858B859C85EA
:102E50000E94FA1B88232CF481E090E09E878D87E6
:102E60003FC020E03FEF4FE757E469857A858B85C7
:102E70009C850E94491D18164CF520E030E040E288
:102E800051E46D817E818F8198850E944D1DDC010A
:102E9000CB01BC01CD010E946B1CDC01CB019E87E4
:102EA0008D870FC080E991E0988B8F878F859889F7
:102EB0000197F1F7988B8F878D859E8501979E8767
:102EC0008D878D859E85009769F714C069857A8501
:102ED0008B859C850E946B1CDC01CB019E878D87B6
:102EE0008D859E859A8B898B89899A890197F1F7BF
:102EF0009A8B898B80917B05882F90E0813A910590
:102F000051F0823A910559F0803A910561F484E0DC
:102F10000E9463100BC085E00E94C20F07C083E0CF
:102F20000E94081103C010927A0500006CCF2F9206
:102F30003F924F925F926F927F928F929F92AF9249
:102F4000BF92CF92DF92EF92FF920F931F93CF9396
:102F5000DF93CDB7DEB763970FB6F894DEBF0FBE31
:102F6000CDBF7C011B016A01FC011782168283819F
:102F700081FF66C3BE016F5F7F4F4B01F7019381F5
:102F8000F10193FD859193FF81911F01882309F43D
:102F900053C3853239F493FD859193FF81911F01CD
:102FA000853239F4B70190E00E940A20560165018C
:102FB000E5CF10E0512C20E02032A0F48B3269F0F4
:102FC00030F4803259F0833269F420612CC08D32A4
:102FD00039F0803339F4216026C02260246023C098
:102FE000286021C027FD27C030ED380F3A3078F433
:102FF00026FF06C0FAE01F9F300D1124132F13C0C7
:103000006AE0569E300D1124532E20620CC08E3281
:1030100021F426FD11C3206406C08C3611F420680B
:1030200002C0883641F4F10193FD859193FF8191AF
:103030001F018111C1CF9BEB980F933018F42061D1
:10304000805E06C09BE9980F933008F0AAC12F7EDE
:1030500026FF16E02F73722E853621F4F22FF064CE
:103060007F2E08C0863621F4622F6068762E02C05B
:103070001111115077FE07C01C3348F444244394C7
:10308000410E27E00BC0183030F4212F06C027E096
:103090004CE3442E03C027E017E0412C560174E0B6
:1030A000A70EB11CF6016081718182819381042D8C
:1030B000A4010E94151F6C01098100FF02C003FFDB
:1030C00006C071FC07C072FC08C0612C08C03DE25C
:1030D000632E05C02BE2622E02C090E2692E802F83
:1030E0008C7099F1662011F084E001C083E08515B1
:1030F00010F0512C0BC0581A73FC08C0B70180E2C5
:1031000090E00E940A205A94C9F7F3CF662029F074
:10311000B701862D90E00E940A2003FD03C004EC55
:1031200011E002C000EC11E0F72DF0717F2EF801E4
:103130008491882309F476C271108052B70190E01F
:103140000E940A200F5F1F4FF2CF77FE0FC04C0C7A
:1031500004FF04C08A81813309F44A94141474F57D
:10316000F8E0F41578F588E0482E2CC076FC2AC0EB
:10317000812F90E08C159D059CF06CEFC6166FEFCB
:10318000D60674F0772D7068772E0AC0E2E0F0E082
:10319000EC0FFD1FE10FF11D8081803319F41150F8
:1031A0001111F4CF77FE0EC044244394410E812FB9
:1031B00090E0C816D9062CF41C1904C0442443948A
:1031C00001C010E077FE07C01C141D043CF49601FA
:1031D0002F5F3F4F05C025E030E002C021E030E026
:1031E000662011F02F5F3F4F112331F0412F50E047
:1031F0004F5F5F4F240F351F452D50E024173507D3
:1032000014F4521A01C0512C872D897049F45520AD
:1032100039F0B70180E290E00E940A205A94F7CF7B
:10322000662029F0B701862D90E00E940A2073FCE9
:1032300009C0552039F0B70180E390E00E940A20D0
:103240005A94F7CF77FE5FC09C2D8D2DD7FE02C01C
:1032500090E080E0692E782E40E050E0C6018419AD
:1032600091099D878C87960126193709280D391DEC
:10327000812F90E0EE27FF27E81BF90BFF87EE87F1
:10328000FFEF6F167F0669F4B7018EE290E02B8B9B
:103290003A8B488B598B0E940A20598948893A8970
:1032A0002B89C614D70454F06C857D856615770587
:1032B0002CF4F901E40FF51F818101C080E371E076
:1032C000671A71084F5F5F4FEE85FF856E167F06A8
:1032D0006CF0B70190E02B8B3A8B488B598B0E9496
:1032E0000A202B893A8948895989CACF6C147D04F0
:1032F00039F49A81963318F4953311F404FF81E37D
:10330000B70190E04BC08A81813309F00F7EB7018D
:1033100090E00E940A20111105C074FE18C085E4D7
:1033200090E017C0B7018EE290E00E940A2082E090
:1033300066246394680EF401E80FF11D8081B701E3
:1033400090E00E940A20115041F3862DF1CF85E6CE
:1033500090E0B7010E940A20D7FC05C0C114D10437
:1033600039F404FF05C0D194C194D1088DE201C0A5
:103370008BE2B70190E00E940A2080E36AE0C61663
:10338000D1042CF08F5FFAE0CF1AD108F7CFB70144
:1033900090E00E940A20B701C601C0960E940A2050
:1033A00041C1833631F0833779F0833509F058C055
:1033B00021C0560172E0A70EB11CF60180818983FD
:1033C00001E010E0640114C05601F2E0AF0EB11C40
:1033D000F601C080D18026FF03C0612F70E002C0DB
:1033E0006FEF7FEFC6012B8B0E94FF1F8C012B8993
:1033F0002F7715C05601F2E0AF0EB11CF601C08068
:10340000D18026FF03C0612F70E002C06FEF7FEF15
:10341000C6012B8B0E94ED1F8C012B892068722E18
:1034200023FD1AC0852D90E008171907A8F4B701ED
:1034300080E290E00E940A205A94F4CFF60177FCD3
:10344000859177FE81916F01B70190E00E940A207B
:1034500051105A94015011090115110579F7E2C074
:10346000843611F0893651F5560127FF09C0F4E082
:10347000AF0EB11CF60160817181828193810AC017
:10348000F2E0AF0EB11CF60160817181882777FDF3
:103490008095982F022F0F7697FF08C09095809502
:1034A000709561957F4F8F4F9F4F00682AE030E005
:1034B000A4010E946B20C82EC8183EC0022F853779
:1034C00021F40F7E2AE030E01DC0097F8F3691F095
:1034D00018F4883559F0B0C0803719F0883711F0EA
:1034E000ABC0006104FF09C0046007C024FF08C02E
:1034F000066006C028E030E005C020E130E002C0F0
:1035000020E132E0560107FF09C0F4E0AF0EB11C24
:10351000F601608171818281938108C0F2E0AF0E73
:10352000B11CF6016081718180E090E0A4010E94ED
:103530006B20C82EC8180F7706FF0BC0202F2E7FD8
:10354000C11650F404FF0AC002FD08C0202F2E7ED1
:1035500005C0DC2C202F03C0DC2C01C0D12E24FFA1
:103560000DC0FE01EC0DF11D8081803311F4297E28
:1035700009C022FF06C0D394D39404C0822F86785A
:1035800009F0D39423FD13C020FF06C01C2DD514D1
:1035900018F4150D1D19D52CD51468F4B70180E267
:1035A00090E02B8B0E940A20D3942B89F5CFD51461
:1035B00010F45D1801C0512C24FF12C0B70180E344
:1035C00090E02B8B0E940A202B8922FF17C021FF3D
:1035D00003C088E590E002C088E790E0B7010CC026
:1035E000822F867859F021FD02C080E201C08BE273
:1035F00027FD8DE2B70190E00E940A20C11638F441
:10360000B70180E390E00E940A201150F7CFCA94DE
:10361000F401EC0DF11D8081B70190E00E940A20B9
:10362000C110F5CF552009F4C2CCB70180E290E07B
:103630000E940A205A94F6CFF7018681978102C032
:103640008FEF9FEF63960FB6F894DEBF0FBECDBF2E
:10365000DF91CF911F910F91FF90EF90DF90CF906E
:10366000BF90AF909F908F907F906F905F904F90A2
:103670003F902F900895DB018F939F930E94731BBF
:10368000BF91AF91A29F800D911DA39F900DB29FFE
:10369000900D11240895A1E21A2EAA1BBB1BFD0157
:1036A0000DC0AA1FBB1FEE1FFF1FA217B307E40721
:1036B000F50720F0A21BB30BE40BF50B661F771F79
:1036C000881F991F1A9469F7609570958095909559
:1036D0009B01AC01BD01CF010895EE0FFF1F0590C6
:1036E000F491E02D19940E94861BA59F900DB49F24
:1036F000900DA49F800D911D11240895B7FF0C9487
:10370000731B0E94731B821B930B0895A29FB00131
:10371000B39FC001A39F700D811D1124911DB29F05
:10372000700D811D1124911D08955058BB27AA27A3
:103730000ED075C166D130F06BD120F031F49F3FCF
:1037400011F41EF45BC10EF4E095E7FB51C1E92FC3
:1037500077D180F3BA17620773078407950718F0CB
:1037600071F49EF58FC10EF4E0950B2EBA2FA02DAB
:103770000B01B90190010C01CA01A0011124FF271E
:10378000591B99F0593F50F4503E68F11A16F04019
:10379000A22F232F342F4427585FF3CF4695379518
:1037A0002795A795F0405395C9F77EF41F16BA0BDD
:1037B000620B730B840BBAF09150A1F0FF0FBB1F8B
:1037C000661F771F881FC2F70EC0BA0F621F731FD4
:1037D000841F48F4879577956795B795F7959E3F31
:1037E00008F0B3CF9395880F08F09927EE0F9795BF
:1037F00087950895D9D008F481E008950CD00FC1C1
:1038000007D140F0FED030F021F45F3F19F0F0C056
:10381000511139C1F3C014D198F39923C9F3552339
:10382000B1F3951B550BBB27AA27621773078407B3
:1038300038F09F5F5F4F220F331F441FAA1FA9F369
:1038400033D00E2E3AF0E0E830D091505040E6955B
:10385000001CCAF729D0FE2F27D0660F771F881FBC
:10386000BB1F261737074807AB07B0E809F0BB0BAB
:10387000802DBF01FF2793585F4F2AF09E3F5105CF
:1038800068F0B6C000C15F3FECF3983EDCF386956C
:1038900077956795B795F7959F5FC9F7880F911D45
:1038A0009695879597F90895E1E0660F771F881F31
:1038B000BB1F621773078407BA0720F0621B730BE4
:1038C000840BBA0BEE1F88F7E095089504D0689436
:1038D000B111D9C00895BCD088F09F5790F0B92F8E
:1038E0009927B751A0F0D1F0660F771F881F991F55
:1038F0001AF0BA95C9F712C0B13081F0C3D0B1E067
:103900000895C0C0672F782F8827B85F39F0B93F76
:10391000CCF3869577956795B395D9F73EF4909556
:103920008095709561957F4F8F4F9F4F0895E894D4
:1039300009C097FB3EF490958095709561957F4FF7
:103940008F4F9F4F9923A9F0F92F96E9BB279395A5
:10395000F695879577956795B795F111F8CFFAF4B5
:10396000BB0F11F460FF1BC06F5F7F4F8F4F9F4FE6
:1039700016C0882311F096E911C0772321F09EE844
:10398000872F762F05C0662371F096E8862F70E0AA
:1039900060E02AF09A95660F771F881FDAF7880F84
:1039A0009695879597F90895990F0008550FAA0BDA
:1039B000E0E8FEEF16161706E807F907C0F0121642
:1039C0001306E407F50798F0621B730B840B950B45
:1039D00039F40A2661F0232B242B252B21F408959A
:1039E0000A2609F4A140A6958FEF811D811D089537
:1039F00097F99F6780E870E060E008959FEF80ECA2
:103A0000089500240A941616170618060906089544
:103A100000240A9412161306140605060895092EAA
:103A20000394000C11F4882352F0BB0F40F4BF2B19
:103A300011F460FF04C06F5F7F4F8F4F9F4F089559
:103A400057FD9058440F551F59F05F3F71F047954F
:103A5000880F97FB991F61F09F3F79F08795089534
:103A6000121613061406551FF2CF4695F1DF08C053
:103A7000161617061806991FF1CF86957105610570
:103A800008940895E894BB2766277727CB0197F918
:103A900008958ADF08F48FEF08950BD0C0CFB1DF0F
:103AA00028F0B6DF18F0952309F0A2CFA7CF112494
:103AB000EACFC6DFA0F3959FD1F3950F50E0551FD5
:103AC000629FF001729FBB27F00DB11D639FAA2773
:103AD000F00DB11DAA1F649F6627B00DA11D661FC2
:103AE000829F2227B00DA11D621F739FB00DA11DE3
:103AF000621F839FA00D611D221F749F3327A00D9D
:103B0000611D231F849F600D211D822F762F6A2F38
:103B100011249F5750408AF0E1F088234AF0EE0FBD
:103B2000FF1FBB1F661F771F881F91505040A9F7CA
:103B30009E3F510570F05CCFA6CF5F3FECF3983EFF
:103B4000DCF3869577956795B795F795E7959F5F31
:103B5000C1F7FE2B880F911D9695879597F90895CB
:103B6000FA01EE0FFF1F30962105310599F161151D
:103B7000710561F48038BFE39B0749F16894903880
:103B8000810561F08038BFEF9B0741F0992342F532
:103B9000FF3FE1053105210511F1E8940894E7950F
:103BA000D901AA2329F4AB2FBE2FF85FD0F310C0A0
:103BB000FF5F70F4A695E0F7F73950F019F0FF3A7F
:103BC00038F49F779F930CD00F9007FC905808957E
:103BD0003EF014CF60E070E080E89FE308954FE787
:103BE0009F775F934F933F932F939ED02F913F9159
:103BF0004F915F9152DF05C019F40EF0F9CE42CF1C
:103C0000FDCE26DFC8F39638C0F707F80F92E89488
:103C10002BE33AEA48EB5FE74EDF0F920F920F92E9
:103C20004DB75EB70F92C0D0EEE0F1E016D04F91E5
:103C30005F91EF91FF91E595EE1FFF1F49F0FE5751
:103C4000E0684427EE0F441FFA95E1F74195550BC4
:103C500032D00F9007FE26C00895DF93CF931F93B5
:103C60000F93FF92EF92DF927B018C01689405C065
:103C7000DA2EEF011EDFFE01E894A5912591359122
:103C800045915591AEF3EF0162DDFE019701A80168
:103C9000DA9479F7DF90EF90FF900F911F91CF9119
:103CA000DF9108959B01AC0160E070E080E89FE344
:103CB000A5CD9ECEACC0CCDEE8F39923D9F3940F0A
:103CC000511DBBF39150504094F059F0882332F0CD
:103CD000660F771F881F91505040C1F79E3F5105D6
:103CE00044F7880F911D9695879597F908955F3F42
:103CF000ACF0983E9CF0BB27869577956795B79575
:103D000008F4B1609395C1F7BB0F58F711F460FF49
:103D1000E8CF6F5F7F4F8F4F9F4FE3CFB4CE0EF052
:103D200076C06CCE689464CE93DEC8F39923D1F349
:103D3000C6F3DF93CF931F930F93FF92C92FDD2715
:103D400088232AF02197660F771F881FDAF720E073
:103D500030E040E85FEB9FE3883920F0803E30F0B0
:103D600021968F77E3DCE6E3F1E003C0DFDCE3E6F6
:103D7000F1E073DF8B01BE01EC01FB2E6F5771097F
:103D80007595771F880B990BD4DD28E132E741E365
:103D90005FE38FDEAF2D9801AE01FF900F911F9171
:103DA000CF91DF91D4DC3BCEFA01DC01AA0FBB1F1F
:103DB0009B01AC01BF5728F42227332744275078B2
:103DC0001FC0B75188F4AB2F00244695379527952F
:103DD000011CA395D2F3002069F0220F331F441F6A
:103DE000B395DAF30DD0A1CC61307105A0E88A0754
:103DF000B94630F49B01AC01662777278827907875
:103E0000309621F0208331834283538308959F3F6E
:103E100031F0915020F4879577956795B795880F85
:103E2000911D9695879597F90895283008F027E019
:103E30003327DA01990F311D87FD916000966105E6
:103E4000710539F432602E5F3D9330E32A95E1F736
:103E500008959F3F30F080387105610509F03C5F9F
:103E60003C5F3D93913008F08068911DDF93CF93C4
:103E70001F930F93FF92EF92192F987F9695E92F3A
:103E800096959695E90FFF27EE5DFD4F992733270D
:103E9000EE24FF24A701E70105900894079428F475
:103EA000360FE71EF81E491F511D660F771F881F2A
:103EB000991F0694A1F70590079428F4E70EF81EC1
:103EC000491F561FC11D770F881F991F661F069433
:103ED000A1F70590079428F4F80E491F561FC71F35
:103EE000D11D880F991F661F771F0694A1F70590B3
:103EF000079420F4490F561FC71FD81F990F661F3C
:103F0000771F881F0694A9F784911095177041F0C8
:103F1000D695C79557954795F794E7941A95C1F7A5
:103F2000E8ECF1E0689415901591359165919591C3
:103F300005907FE27395E118F10A430B560BC90B0C
:103F4000D009C0F7E10CF11E431F561FC91FD01D39
:103F50007EF4703311F48A95E6CFE894015030F086
:103F6000080F0AF40027021708F4202F2395022FC8
:103F70007A3328F079E37D932A95E9F710C07D9391
:103F80002A9589F60694979567953795179517940E
:103F9000E118F10A430B560BC90BD00998F0239591
:103FA0007E9173957A3308F070E37C932013B8F711
:103FB0007E9170617D9330F0839571E37D9370E322
:103FC0002A95E1F71124EF90FF900F911F91CF9167
:103FD000DF91992787FD90950895FC010590615028
:103FE00070400110D8F7809590958E0F9F1F08950F
:103FF000DC0101C06D9341505040E0F70895FC0191
:104000006150704001900110D8F7809590958E0F07
:104010009F1F08950F931F93CF93DF93182F092F9E
:10402000EB018B8181FD03C08FEF9FEF20C082FFEA
:1040300010C04E815F812C813D81421753077CF473
:10404000E881F9819F012F5F3F4F398328831083D7
:1040500006C0E885F985812F1995892B29F72E81CE
:104060003F812F5F3F4F3F832E83812F902FDF9122
:10407000CF911F910F9108950F931F93CF93DF93CB
:10408000CDB7DEB72E970FB6F894DEBF0FBECDBF0B
:104090000E891F8986E08C831A8309838FEF9FE73F
:1040A0009E838D83AE01465E5F4F688D798DCE0114
:1040B00001960E949717EF81F885E00FF11F10829B
:1040C0002E960FB6F894DEBF0FBECDBFDF91CF9115
:1040D0001F910F910895FA01AA27283051F120313C
:1040E00081F1E8946F936E7F6E5F7F4F8F4F9F4F8C
:1040F000AF4FB1E03ED0B4E03CD0670F781F891FCE
:104100009A1FA11D680F791F8A1F911DA11D6A0F9B
:10411000711D811D911DA11D20D009F468943F914E
:104120002AE0269F11243019305D3193DEF6CF014D
:104130000895462F4770405D4193B3E00FD0C9F713
:10414000F6CF462F4F70405D4A3318F0495D31FD80
:104150004052419302D0A9F7EACFB4E0A6959795D3
:10416000879577956795BA95C9F7009761057105A9
:1041700008959B01AC010A2E0694579547953795F3
:104180002795BA95C9F7620F731F841F951FA01D4D
:064190000895F894FFCF32
:10419600039B0054696D656F7574210D0A005061AB
:1041A600636B6574204352433A2025780943616C5A
:1041B60063204352433A2025780D0A00456C657604
:1041C6006174696F6E205061636B6574204352435E
:1041D6003A2025780943616C63204352433A2025EF
:1041E600780D0A0041444352616E67652050616351
:1041F6006B6574204352433A2025780943616C630A
:10420600204352433A2025780D0A00414443726107
:104216006E6765205061636B6574204352433A2094
:1042260025780943616C63204352433A2025780D73
:104236000A000D0A54656D706572617475726520A9
:10424600414E4420507265737375726520407469DF
:104256006D653A2025643A25643A256409252E3190
:104266006609252E32660D0A00416D6269656E7417
:10427600204C69676874204C6576656C20616E64B5
:104286002053656E736F7220566464204074696DA6
:10429600653A2025643A25643A2564092534780967
:1042A60009253478200D0A0050726573737572659E
:1042B6002053656E736F72206E6F74207265737013
:1042C6006F6E64696E670D0A00424D502049443A8C
:1042D60020253478200D0A004C69676874205365E0
:1042E6006E736F72206E6F7420726573706F6E647A
:1042F600696E670D0A0053492055562053656E7343
:104306006F7220506172742049443A202578095012
:10431600617274205265763A202578095365717565
:10432600656E636572205265763A202578200D0AFF
:1043360000496E697469616C2054656D70657261BF
:104346007475726520414E442050726573737572A0
:10435600653A20252E316609252E32660D0A0000A3
:00000001FF
